{
  "_format": "hh-sol-artifact-1",
  "contractName": "ChaiToken",
  "sourceName": "contracts/ChaiToken.sol",
  "abi": [
    {
      "inputs": [
        {
          "internalType": "uint256",
          "name": "_initialSupply",
          "type": "uint256"
        }
      ],
      "stateMutability": "nonpayable",
      "type": "constructor"
    },
    {
      "anonymous": false,
      "inputs": [
        {
          "indexed": true,
          "internalType": "address",
          "name": "owner",
          "type": "address"
        },
        {
          "indexed": true,
          "internalType": "address",
          "name": "spender",
          "type": "address"
        },
        {
          "indexed": false,
          "internalType": "uint256",
          "name": "_value",
          "type": "uint256"
        }
      ],
      "name": "Approval",
      "type": "event"
    },
    {
      "anonymous": false,
      "inputs": [
        {
          "indexed": false,
          "internalType": "address",
          "name": "_from",
          "type": "address"
        },
        {
          "indexed": false,
          "internalType": "address",
          "name": "_to",
          "type": "address"
        },
        {
          "indexed": false,
          "internalType": "uint256",
          "name": "value",
          "type": "uint256"
        }
      ],
      "name": "Transfer",
      "type": "event"
    },
    {
      "inputs": [],
      "name": "_userId",
      "outputs": [
        {
          "internalType": "uint256",
          "name": "",
          "type": "uint256"
        }
      ],
      "stateMutability": "view",
      "type": "function"
    },
    {
      "inputs": [
        {
          "internalType": "address",
          "name": "",
          "type": "address"
        },
        {
          "internalType": "address",
          "name": "",
          "type": "address"
        }
      ],
      "name": "allowance",
      "outputs": [
        {
          "internalType": "uint256",
          "name": "",
          "type": "uint256"
        }
      ],
      "stateMutability": "view",
      "type": "function"
    },
    {
      "inputs": [
        {
          "internalType": "address",
          "name": "_spender",
          "type": "address"
        },
        {
          "internalType": "uint256",
          "name": "_value",
          "type": "uint256"
        }
      ],
      "name": "approve",
      "outputs": [
        {
          "internalType": "bool",
          "name": "success",
          "type": "bool"
        }
      ],
      "stateMutability": "nonpayable",
      "type": "function"
    },
    {
      "inputs": [
        {
          "internalType": "address",
          "name": "",
          "type": "address"
        }
      ],
      "name": "balanceOf",
      "outputs": [
        {
          "internalType": "uint256",
          "name": "",
          "type": "uint256"
        }
      ],
      "stateMutability": "view",
      "type": "function"
    },
    {
      "inputs": [],
      "name": "getTokenHolder",
      "outputs": [
        {
          "internalType": "address[]",
          "name": "",
          "type": "address[]"
        }
      ],
      "stateMutability": "view",
      "type": "function"
    },
    {
      "inputs": [
        {
          "internalType": "address",
          "name": "_address",
          "type": "address"
        }
      ],
      "name": "getTokenHolderData",
      "outputs": [
        {
          "internalType": "uint256",
          "name": "",
          "type": "uint256"
        },
        {
          "internalType": "address",
          "name": "",
          "type": "address"
        },
        {
          "internalType": "address",
          "name": "",
          "type": "address"
        },
        {
          "internalType": "uint256",
          "name": "",
          "type": "uint256"
        },
        {
          "internalType": "bool",
          "name": "",
          "type": "bool"
        }
      ],
      "stateMutability": "view",
      "type": "function"
    },
    {
      "inputs": [
        {
          "internalType": "uint256",
          "name": "",
          "type": "uint256"
        }
      ],
      "name": "holderToken",
      "outputs": [
        {
          "internalType": "address",
          "name": "",
          "type": "address"
        }
      ],
      "stateMutability": "view",
      "type": "function"
    },
    {
      "inputs": [],
      "name": "name",
      "outputs": [
        {
          "internalType": "string",
          "name": "",
          "type": "string"
        }
      ],
      "stateMutability": "view",
      "type": "function"
    },
    {
      "inputs": [],
      "name": "ownerOfcontract",
      "outputs": [
        {
          "internalType": "address",
          "name": "",
          "type": "address"
        }
      ],
      "stateMutability": "view",
      "type": "function"
    },
    {
      "inputs": [],
      "name": "standard",
      "outputs": [
        {
          "internalType": "string",
          "name": "",
          "type": "string"
        }
      ],
      "stateMutability": "view",
      "type": "function"
    },
    {
      "inputs": [],
      "name": "symbol",
      "outputs": [
        {
          "internalType": "string",
          "name": "",
          "type": "string"
        }
      ],
      "stateMutability": "view",
      "type": "function"
    },
    {
      "inputs": [
        {
          "internalType": "address",
          "name": "",
          "type": "address"
        }
      ],
      "name": "tokenHolderInfos",
      "outputs": [
        {
          "internalType": "uint256",
          "name": "_tokenId",
          "type": "uint256"
        },
        {
          "internalType": "address",
          "name": "_from",
          "type": "address"
        },
        {
          "internalType": "address",
          "name": "_to",
          "type": "address"
        },
        {
          "internalType": "uint256",
          "name": "totalToken",
          "type": "uint256"
        },
        {
          "internalType": "bool",
          "name": "TokenHolder",
          "type": "bool"
        }
      ],
      "stateMutability": "view",
      "type": "function"
    },
    {
      "inputs": [],
      "name": "totalSupply",
      "outputs": [
        {
          "internalType": "uint256",
          "name": "",
          "type": "uint256"
        }
      ],
      "stateMutability": "view",
      "type": "function"
    },
    {
      "inputs": [
        {
          "internalType": "address",
          "name": "_to",
          "type": "address"
        },
        {
          "internalType": "uint256",
          "name": "_value",
          "type": "uint256"
        }
      ],
      "name": "transfer",
      "outputs": [
        {
          "internalType": "bool",
          "name": "success",
          "type": "bool"
        }
      ],
      "stateMutability": "nonpayable",
      "type": "function"
    },
    {
      "inputs": [
        {
          "internalType": "address",
          "name": "_from",
          "type": "address"
        },
        {
          "internalType": "address",
          "name": "_to",
          "type": "address"
        },
        {
          "internalType": "uint256",
          "name": "_value",
          "type": "uint256"
        }
      ],
      "name": "transferFrom",
      "outputs": [
        {
          "internalType": "bool",
          "name": "success",
          "type": "bool"
        }
      ],
      "stateMutability": "nonpayable",
      "type": "function"
    }
  ],
  "bytecode": "0x60806040526040518060400160405280600981526020017f43686169546f6b656e0000000000000000000000000000000000000000000000815250600090816200004a919062000419565b506040518060400160405280600481526020017f43686169000000000000000000000000000000000000000000000000000000008152506001908162000091919062000419565b506040518060400160405280600a81526020017f4368616920762e302e310000000000000000000000000000000000000000000081525060029081620000d8919062000419565b50348015620000e657600080fd5b50604051620019a7380380620019a783398181016040528101906200010c919062000536565b33600560006101000a81548173ffffffffffffffffffffffffffffffffffffffff021916908373ffffffffffffffffffffffffffffffffffffffff16021790555080600860003373ffffffffffffffffffffffffffffffffffffffff1673ffffffffffffffffffffffffffffffffffffffff16815260200190815260200160002081905550806003819055505062000568565b600081519050919050565b7f4e487b7100000000000000000000000000000000000000000000000000000000600052604160045260246000fd5b7f4e487b7100000000000000000000000000000000000000000000000000000000600052602260045260246000fd5b600060028204905060018216806200022157607f821691505b602082108103620002375762000236620001d9565b5b50919050565b60008190508160005260206000209050919050565b60006020601f8301049050919050565b600082821b905092915050565b600060088302620002a17fffffffffffffffffffffffffffffffffffffffffffffffffffffffffffffffff8262000262565b620002ad868362000262565b95508019841693508086168417925050509392505050565b6000819050919050565b6000819050919050565b6000620002fa620002f4620002ee84620002c5565b620002cf565b620002c5565b9050919050565b6000819050919050565b6200031683620002d9565b6200032e620003258262000301565b8484546200026f565b825550505050565b600090565b6200034562000336565b620003528184846200030b565b505050565b5b818110156200037a576200036e6000826200033b565b60018101905062000358565b5050565b601f821115620003c95762000393816200023d565b6200039e8462000252565b81016020851015620003ae578190505b620003c6620003bd8562000252565b83018262000357565b50505b505050565b600082821c905092915050565b6000620003ee60001984600802620003ce565b1980831691505092915050565b6000620004098383620003db565b9150826002028217905092915050565b62000424826200019f565b67ffffffffffffffff81111562000440576200043f620001aa565b5b6200044c825462000208565b620004598282856200037e565b600060209050601f8311600181146200049157600084156200047c578287015190505b620004888582620003fb565b865550620004f8565b601f198416620004a1866200023d565b60005b82811015620004cb57848901518255600182019150602085019450602081019050620004a4565b86831015620004eb5784890151620004e7601f891682620003db565b8355505b6001600288020188555050505b505050505050565b600080fd5b6200051081620002c5565b81146200051c57600080fd5b50565b600081519050620005308162000505565b92915050565b6000602082840312156200054f576200054e62000500565b5b60006200055f848285016200051f565b91505092915050565b61142f80620005786000396000f3fe608060405234801561001057600080fd5b50600436106100f55760003560e01c8063760b06c511610097578063a9059cbb11610066578063a9059cbb146102b8578063ba8e3557146102e8578063bc4530e714610306578063dd62ed3e14610324576100f5565b8063760b06c51461021857806382b68263146102485780638bc39f501461027c57806395d89b411461029a576100f5565b806323b872dd116100d357806323b872dd1461016657806329cc66ed146101965780635a3b7e42146101ca57806370a08231146101e8576100f5565b806306fdde03146100fa578063095ea7b31461011857806318160ddd14610148575b600080fd5b610102610354565b60405161010f9190610e72565b60405180910390f35b610132600480360381019061012d9190610f2d565b6103e2565b60405161013f9190610f88565b60405180910390f35b6101506104d4565b60405161015d9190610fb2565b60405180910390f35b610180600480360381019061017b9190610fcd565b6104da565b60405161018d9190610f88565b60405180910390f35b6101b060048036038101906101ab9190611020565b610661565b6040516101c195949392919061105c565b60405180910390f35b6101d26106e4565b6040516101df9190610e72565b60405180910390f35b61020260048036038101906101fd9190611020565b610772565b60405161020f9190610fb2565b60405180910390f35b610232600480360381019061022d91906110af565b61078a565b60405161023f91906110dc565b60405180910390f35b610262600480360381019061025d9190611020565b6107c9565b60405161027395949392919061105c565b60405180910390f35b610284610980565b60405161029191906110dc565b60405180910390f35b6102a26109a6565b6040516102af9190610e72565b60405180910390f35b6102d260048036038101906102cd9190610f2d565b610a34565b6040516102df9190610f88565b60405180910390f35b6102f0610d0f565b6040516102fd91906111b5565b60405180910390f35b61030e610d9d565b60405161031b9190610fb2565b60405180910390f35b61033e600480360381019061033991906111d7565b610da3565b60405161034b9190610fb2565b60405180910390f35b6000805461036190611246565b80601f016020809104026020016040519081016040528092919081815260200182805461038d90611246565b80156103da5780601f106103af576101008083540402835291602001916103da565b820191906000526020600020905b8154815290600101906020018083116103bd57829003601f168201915b505050505081565b600081600960003373ffffffffffffffffffffffffffffffffffffffff1673ffffffffffffffffffffffffffffffffffffffff16815260200190815260200160002060008573ffffffffffffffffffffffffffffffffffffffff1673ffffffffffffffffffffffffffffffffffffffff168152602001908152602001600020819055508273ffffffffffffffffffffffffffffffffffffffff163373ffffffffffffffffffffffffffffffffffffffff167f8c5be1e5ebec7d5bd14f71427d1e84f3dd0314c0f7b2291e5b200ac8c7c3b925846040516104c29190610fb2565b60405180910390a36001905092915050565b60035481565b600081600860008673ffffffffffffffffffffffffffffffffffffffff1673ffffffffffffffffffffffffffffffffffffffff168152602001908152602001600020600082825461052b91906112a6565b9250508190555081600860008573ffffffffffffffffffffffffffffffffffffffff1673ffffffffffffffffffffffffffffffffffffffff168152602001908152602001600020600082825461058191906112da565b9250508190555081600960008673ffffffffffffffffffffffffffffffffffffffff1673ffffffffffffffffffffffffffffffffffffffff16815260200190815260200160002060003373ffffffffffffffffffffffffffffffffffffffff1673ffffffffffffffffffffffffffffffffffffffff168152602001908152602001600020600082825461061491906112a6565b925050819055507fddf252ad1be2c89b69c2b068fc378daa952ba7f163c4a11628f55a4df523b3ef84848460405161064e9392919061130e565b60405180910390a1600190509392505050565b60076020528060005260406000206000915090508060000154908060010160009054906101000a900473ffffffffffffffffffffffffffffffffffffffff16908060020160009054906101000a900473ffffffffffffffffffffffffffffffffffffffff16908060030154908060040160009054906101000a900460ff16905085565b600280546106f190611246565b80601f016020809104026020016040519081016040528092919081815260200182805461071d90611246565b801561076a5780601f1061073f5761010080835404028352916020019161076a565b820191906000526020600020905b81548152906001019060200180831161074d57829003601f168201915b505050505081565b60086020528060005260406000206000915090505481565b6006818154811061079a57600080fd5b906000526020600020016000915054906101000a900473ffffffffffffffffffffffffffffffffffffffff1681565b6000806000806000600760008773ffffffffffffffffffffffffffffffffffffffff1673ffffffffffffffffffffffffffffffffffffffff16815260200190815260200160002060000154600760008873ffffffffffffffffffffffffffffffffffffffff1673ffffffffffffffffffffffffffffffffffffffff16815260200190815260200160002060010160009054906101000a900473ffffffffffffffffffffffffffffffffffffffff16600760008973ffffffffffffffffffffffffffffffffffffffff1673ffffffffffffffffffffffffffffffffffffffff16815260200190815260200160002060020160009054906101000a900473ffffffffffffffffffffffffffffffffffffffff16600760008a73ffffffffffffffffffffffffffffffffffffffff1673ffffffffffffffffffffffffffffffffffffffff16815260200190815260200160002060030154600760008b73ffffffffffffffffffffffffffffffffffffffff1673ffffffffffffffffffffffffffffffffffffffff16815260200190815260200160002060040160009054906101000a900460ff169450945094509450945091939590929450565b600560009054906101000a900473ffffffffffffffffffffffffffffffffffffffff1681565b600180546109b390611246565b80601f01602080910402602001604051908101604052809291908181526020018280546109df90611246565b8015610a2c5780601f10610a0157610100808354040283529160200191610a2c565b820191906000526020600020905b815481529060010190602001808311610a0f57829003601f168201915b505050505081565b600081600860003373ffffffffffffffffffffffffffffffffffffffff1673ffffffffffffffffffffffffffffffffffffffff168152602001908152602001600020541015610ab8576040517f08c379a0000000000000000000000000000000000000000000000000000000008152600401610aaf90611391565b60405180910390fd5b610ac0610dc8565b81600860003373ffffffffffffffffffffffffffffffffffffffff1673ffffffffffffffffffffffffffffffffffffffff1681526020019081526020016000206000828254610b0f91906112a6565b9250508190555081600860008573ffffffffffffffffffffffffffffffffffffffff1673ffffffffffffffffffffffffffffffffffffffff1681526020019081526020016000206000828254610b6591906112da565b925050819055506000600760008573ffffffffffffffffffffffffffffffffffffffff1673ffffffffffffffffffffffffffffffffffffffff1681526020019081526020016000209050338160010160006101000a81548173ffffffffffffffffffffffffffffffffffffffff021916908373ffffffffffffffffffffffffffffffffffffffff160217905550838160020160006101000a81548173ffffffffffffffffffffffffffffffffffffffff021916908373ffffffffffffffffffffffffffffffffffffffff160217905550600454816000018190555060018160040160006101000a81548160ff0219169083151502179055508281600301819055506006849080600181540180825580915050600190039060005260206000200160009091909190916101000a81548173ffffffffffffffffffffffffffffffffffffffff021916908373ffffffffffffffffffffffffffffffffffffffff1602179055507fddf252ad1be2c89b69c2b068fc378daa952ba7f163c4a11628f55a4df523b3ef338585604051610cfc9392919061130e565b60405180910390a1600191505092915050565b60606006805480602002602001604051908101604052809291908181526020018280548015610d9357602002820191906000526020600020905b8160009054906101000a900473ffffffffffffffffffffffffffffffffffffffff1673ffffffffffffffffffffffffffffffffffffffff1681526020019060010190808311610d49575b5050505050905090565b60045481565b6009602052816000526040600020602052806000526040600020600091509150505481565b60046000815480929190610ddb906113b1565b9190505550565b600081519050919050565b600082825260208201905092915050565b60005b83811015610e1c578082015181840152602081019050610e01565b60008484015250505050565b6000601f19601f8301169050919050565b6000610e4482610de2565b610e4e8185610ded565b9350610e5e818560208601610dfe565b610e6781610e28565b840191505092915050565b60006020820190508181036000830152610e8c8184610e39565b905092915050565b600080fd5b600073ffffffffffffffffffffffffffffffffffffffff82169050919050565b6000610ec482610e99565b9050919050565b610ed481610eb9565b8114610edf57600080fd5b50565b600081359050610ef181610ecb565b92915050565b6000819050919050565b610f0a81610ef7565b8114610f1557600080fd5b50565b600081359050610f2781610f01565b92915050565b60008060408385031215610f4457610f43610e94565b5b6000610f5285828601610ee2565b9250506020610f6385828601610f18565b9150509250929050565b60008115159050919050565b610f8281610f6d565b82525050565b6000602082019050610f9d6000830184610f79565b92915050565b610fac81610ef7565b82525050565b6000602082019050610fc76000830184610fa3565b92915050565b600080600060608486031215610fe657610fe5610e94565b5b6000610ff486828701610ee2565b935050602061100586828701610ee2565b925050604061101686828701610f18565b9150509250925092565b60006020828403121561103657611035610e94565b5b600061104484828501610ee2565b91505092915050565b61105681610eb9565b82525050565b600060a0820190506110716000830188610fa3565b61107e602083018761104d565b61108b604083018661104d565b6110986060830185610fa3565b6110a56080830184610f79565b9695505050505050565b6000602082840312156110c5576110c4610e94565b5b60006110d384828501610f18565b91505092915050565b60006020820190506110f1600083018461104d565b92915050565b600081519050919050565b600082825260208201905092915050565b6000819050602082019050919050565b61112c81610eb9565b82525050565b600061113e8383611123565b60208301905092915050565b6000602082019050919050565b6000611162826110f7565b61116c8185611102565b935061117783611113565b8060005b838110156111a857815161118f8882611132565b975061119a8361114a565b92505060018101905061117b565b5085935050505092915050565b600060208201905081810360008301526111cf8184611157565b905092915050565b600080604083850312156111ee576111ed610e94565b5b60006111fc85828601610ee2565b925050602061120d85828601610ee2565b9150509250929050565b7f4e487b7100000000000000000000000000000000000000000000000000000000600052602260045260246000fd5b6000600282049050600182168061125e57607f821691505b60208210810361127157611270611217565b5b50919050565b7f4e487b7100000000000000000000000000000000000000000000000000000000600052601160045260246000fd5b60006112b182610ef7565b91506112bc83610ef7565b92508282039050818111156112d4576112d3611277565b5b92915050565b60006112e582610ef7565b91506112f083610ef7565b925082820190508082111561130857611307611277565b5b92915050565b6000606082019050611323600083018661104d565b611330602083018561104d565b61133d6040830184610fa3565b949350505050565b7f696e73756666696369656e742062616c616e6365000000000000000000000000600082015250565b600061137b601483610ded565b915061138682611345565b602082019050919050565b600060208201905081810360008301526113aa8161136e565b9050919050565b60006113bc82610ef7565b91507fffffffffffffffffffffffffffffffffffffffffffffffffffffffffffffffff82036113ee576113ed611277565b5b60018201905091905056fea26469706673582212204ededd9f5ad8c104f6bd396f6e026cf70a28f3502e328abc0a35a0a5d0f8899b64736f6c63430008110033",
  "linkReferences": {},
  "deployedLinkReferences": {}
}